:020000040800F2
:10000000D82D0020A10100088B2F00085B280008D4
:10001000892F0008F70E0008E536000800000000F0
:10002000000000000000000000000000593100083E
:10003000F90E000800000000AD2F00085B31000839
:10004000BB010008BB010008BB010008BB010008A0
:10005000BB010008BB010008BB010008BB01000890
:10006000BB010008BB010008BB010008BB01000880
:10007000BB010008BB010008BB010008BB01000870
:10008000BB010008BB010008BB010008BB01000860
:10009000BB010008BB010008BB010008BB01000850
:1000A000BB010008BB010008BB010008BB01000840
:1000B000BB010008000000000000000069280008E3
:1000C0005D2800080000000000000000BB010008DF
:1000D00000000000CD360008D936000800000000FE
:1000E000BB010008BB010008000000000000000088
:1000F0000000000000000000000000000000000000
:10010000000000000000000000000000BB0100082B
:100110000000000000000000BB010008BB01000857
:10012000BB010008BB010008BB010008BB010008BF
:10013000BB010008000000000000000000000000FB
:10014000BB010008BB010008BB010008BB0100089F
:10015000BB010008BB010008BB010008BB0100088F
:10016000BB010008BB010008BB0100080000000043
:10017000BB010008BB0100080000000000000000F7
:10018000BB010008BB010008BB010008DFF80CD070
:1001900000F04EFC00480047E5550008D82D00202F
:1001A0000648804706480047FEE7FEE7FEE7FEE711
:1001B000FEE7FEE7FEE7FEE7FEE7FEE76131000847
:1001C0008D0100082DE9F05F0546002092469B4610
:1001D00088460646814640241BE02846414647465D
:1001E000224600F066F953465A46C01A914110D390
:1001F00011461846224600F04DF92D1A67EB01080A
:100200004F4622460120002100F044F917EB000977
:100210004E41201EA4F10104DFDC484631462A4647
:10022000434600F000B830BCBDE8C09F00487047AE
:100230001C64000810B50446FFF7F8FF0068005D75
:1002400000F0010010BD40EA01039B0703D009E064
:1002500008C9121F08C0042AFAD203E011F8013BB2
:1002600000F8013B521EF9D27047D2B201E000F80B
:10027000012B491EFBD270470022F6E710B513464A
:100280000A4604461946FFF7F0FF204610BD30B578
:1002900005462A460B4612F8010B13F8014B08B12C
:1002A000A042F8D01CB1002802D06D1CF1E728460E
:1002B00030BDCAB2401E10F8011F8A4202D0002988
:1002C000F9D100207047421C10F8011B0029FBD116
:1002D000801A704770B5064604F03CFC0468054679
:1002E0000A220021304600F043F92C6070BD2DE950
:1002F000FE4F81EA030404F0004421F00041009421
:100300004FF0000B23F0004350EA01045ED052EAA4
:1003100003045BD0C3F30A54C1F30A552C44A4F27E
:10032000F3340194A0FB0254C1F3130141F4801192
:10033000C3F3130343F4801301FB024400FB034E99
:10034000840A970A44EA815447EA8357A4FB076862
:1003500002958D0A05FB07854FEA932C04FB0C548C
:100360002705029D4FEA065847EA1637B5EB080500
:100370006EEB070C870E920E47EA811742EA831252
:10038000A7FB0201B6EB0B0164EB00042B0D43EA63
:100390000C335E1844EB1C50DA465146E7FB020171
:1003A000C5F313044FEA0B3343EA14534FEA043204
:1003B000019C43EA0603A4F10C040294009CCDE9DD
:1003C00000B400F053F903B000F003B80020014678
:1003D000F9E730BCBDE8C08FC1F30A5210B5C1F3D4
:1003E000130140F2FF3341F480119A4201DA0020F8
:1003F00010BD40F233439A42A2F2334203DC524230
:1004000000F057F810BD904010BD00F0004230F0F1
:1004100000400AD0C10D01F56071C0F3160042EA38
:100420000151C20840071143704700200146704740
:1004300001F0004330B421F0004150EA010206D03F
:100440000A0DA2F56072C1F31301002A02DC30BC70
:1004500000207047440F44EAC104C100E01830BCDA
:1004600000EBC25000F0BCB830B50B46014600208E
:100470002022012409E021FA02F59D4205D303FA66
:1004800002F5491B04FA02F52844151EA2F10102E7
:10049000F1DC30BD202A04DB203A00FA02F1002012
:1004A00070479140C2F1200320FA03F319439040B2
:1004B0007047202A04DB203A21FA02F0002170471D
:1004C00021FA02F3D040C2F12002914008431946BC
:1004D000704700000FB4002300B589B00CA900914B
:1004E0000B996FF00042CB601E4B06931E4B079397
:1004F0000423CDE901321D4A089202466B460020D2
:1005000000F04EFB09B05DF814FB70B586B00646EE
:100510004FF0FF300091CDE90101002015460C4657
:1005200004903246694604A8FFF7D4FF02460498B7
:10053000211825B108B1084600E02046286004983B
:1005400000280DD0002A02DD0098884208D0081B40
:100550000094CDE901043246694604A8FFF7BAFFCA
:1005600006B070BDDF0D0008FD0D00083502000863
:100570002DE9F04791460F4680460446002614F8C0
:10058000015B2DB1FFF752FE0068405DC007F6D158
:100590002B2D02D02D2D18D0641E4A4639462046F8
:1005A00000F03DFC27B13968A14201D1C7F80080B5
:1005B00071054FF002040BD54042002803DD04F022
:1005C000C9FA0460A007BDE8F08746F48066E4E756
:1005D0000028F8DA04F0BEFA04606FF00040F2E799
:1005E0000029A8BF7047401C490008BF20F0010047
:1005F000704710B4B0FA80FC00FA0CF050EA010425
:1006000004BF10BC704749B1CCF1200421FA04F4B6
:1006100011FA0CF118BF012121430843A3EB0C018F
:10062000CB1D4FEA00614FEA102042BF002010BCF2
:10063000704700EBC35010440029A4BF10BC7047A2
:10064000401C490008BF20F0010010BC704710B5E5
:10065000141E73F1000408DA401C41F100019218E5
:100660005B411A4301D120F0010010BD2DE9F04D8E
:1006700092469B4611B1B1FA81F202E0B0FA80F2E3
:1006800020329046FFF706FF04460F4640EA0A0074
:1006900041EA0B0153465A46084313D0114653EA28
:1006A000010019D0C8F140025046FFF702FF05468D
:1006B0000E46504659464246FFF7ECFE084305D029
:1006C000012004E020463946BDE8F08D00200543B6
:1006D00046EAE0762C4337430A986305E40AA0EB28
:1006E00008000022FD0A44EA47540A3002D50020DF
:1006F0000146E9E7010510196941DDE908450019DE
:100700006941BDE8F04DA2E72DE9FE4F804681EA40
:100710000300C00F0C46009021F0004123F000457B
:10072000B8EB0200A94105D24046214690461C463E
:100730000B46024623F00040104347D0270DC7F375
:100740000A00C3F30A510290401A019040286BDA64
:10075000C3F3130040F4801B0098924620B100239D
:10076000D2EB030A63EB0B0B01985946C0F1400230
:100770005046FFF78FFE06460D4650465946019AF1
:1007800000F068F910EB08006141002487EA11527B
:1007900084EAE7731A4340D0009A62B3019A012AAF
:1007A0004FEA075215DC001B61EB02014FF00042DB
:1007B00002EA0752CDE90042001C41F580113246A1
:1007C0002B46FFF753FF03B000F045B840462146E3
:1007D000F9E7001B61EB0201001C41F580130018D2
:1007E0005B412018A2F5001747EB030140EAD570E2
:1007F000B6196D4111E06D084FEA360645EAC0753D
:100800004FEA0752001B61EB0201001C41F5801109
:1008100049084FEA30000019514132462B4603B0D7
:1008200000F01CB8FFF713BF00980122400000231E
:10083000D0EB020263EBE073009821464FEAE074CC
:10084000B8EB000061EB0401E9E783F000435BE7EC
:1008500081F0004158E730BCBDE8C08F30BCBDE836
:10086000C04FFFF7DFBF2DE9F04D81EA030404F02C
:10087000004B21F0004514464FF0000A23F00041E0
:1008800050EA050220D054EA01021DD0C5F30A57F0
:100890000246C5F31303C1F31300C1F30A5640F433
:1008A000801543F48013A7EB0608101BD64608F208
:1008B000FD3873EB050002D308F1010801E092183E
:1008C0005B41B8F1000F03DA00200146BDE8F08D6E
:1008D00000204FF48011064684460EE0171B73EB90
:1008E000050705D3121B63EB050306434CEA010C15
:1008F00049084FEA300092185B4150EA0107EDD1F8
:1009000052EA030012D082EA040083EA0501084398
:1009100005D0101BAB4106D20122002306E00022C5
:100920004FF0004302E06FF0010253101AEB060093
:100930004CEB085110EB0A0041EB0B01BDE8F04D08
:10094000FFF785BE2DE9FE4FC3F30A5701F00045BE
:100950000024C1F30A56C3F31303C1F3130143F494
:10096000801312EB020AA64641F48011009543EB76
:10097000030CA7F1010B16E0B0EB0A0061EB0C01D0
:10098000071E71F1000707DA4FF00008D0EB0800EE
:1009900085F0004568EB0101171A73EB0107EBD3F3
:1009A000761E001849415E45F6DA50EA010209D088
:1009B000CDE900E5002213460296FFF757FE03B08B
:1009C00000F003B820460099F9E730BCBDE8C08FBD
:1009D000C1F30A52C1F3130140F2FF3341F4801115
:1009E0009A4202DA00200146704740F233439A42AD
:1009F000A2F2334202DC5242FFF75BBDFFF74ABD71
:100A000030B5041E71F1000404DB4FF00044404295
:100A100064EB0101141E73F1000405DB1C464FF06A
:100A20000043524263EB0403994208BF904230BD39
:100A3000064C074D06E0E06840F0010394E807002B
:100A400098471034AC42F6D3FFF7A4FB20640008AB
:100A500040640008202A06DBCB17203A41FA02F056
:100A600043EAE07306E041FA02F3D040C2F120020B
:100A700091400843194670472DE9FF4F087883B02D
:100A80009946FF2805D0491C2D2804D000240020B9
:100A900008E000200BE00124F9E700EB800003EB05
:100AA0004000491C0B78FF2BF7D104B140420023D2
:100AB0000293147819461D462D2C01D02B2C04D1FD
:100AC000521C2D2C13D000240294AA461478FF2C1B
:100AD0000FD00A25A3FB057801FB05814FF0000C20
:100AE00003FB0C11521CE3194AEB0101EEE7012450
:100AF000EAE7814453EA010002D019F5C87F06DA1B
:100B000003980021C0E9001107B000F065B9002585
:100B1000AE4E2F46DFF8B882184600F0E0F9CDE976
:100B20000001B9F1000002DAC9F1000400E0044656
:100B30000023A74A1AEB030B42EB045A12E0E0072A
:100B400007D02A46334638464146FFF7D0FB0746D2
:100B500088462A46334610461946FFF7C8FB054625
:100B60000E466410002CEAD1DDE90001B9F1000F56
:100B70005A46534606DAFFF776FE3A464346FFF7F3
:100B800072FE05E0FFF7B3FB3A464346FFF7AFFBC3
:100B9000029A0AB181F00041039AC2E90001B3E769
:100BA0002DE9FF4F1F468DB0D7E901464FF0FF38C2
:100BB0002E2045464FF000090B90B9696D1C0E9828
:100BC0008847396A824688470028F6D1BAF1FF3F44
:100BD0000AD024F4D064002E11DDBAF12B0F08D016
:100BE000BAF12D0F0BD102E0404611B08DE744F46D
:100BF0008064B9696D1C0E9888478246761E6946E6
:100C0000600501D52D2000E02B208DF8000001F1BA
:100C1000010B0DF1200809E0B9696D1C0E98884799
:100C200082460F9844F40074761E0560002E02DDA3
:100C3000BAF1300FF0D00B998A453ED144F08004D0
:100C400006E00F99681CA9F1010944F400740860DA
:100C5000B9696D1C761E0E98884782463028F0D000
:100C60002BE00B998A4505D1200603D444F080047B
:100C7000761E18E0504604F004F908B30DF1130194
:100C8000761E44F400748B4508D2AAF130000BF8AC
:100C9000010B200607D5A9F1010003E0200602D4CC
:100CA00009F101008146A00502D50F99681C086072
:100CB000B9696D1C0E9888478246002ED1DC53E03E
:100CC000002E51DDBAF1650F02D0BAF1450F4BD1BC
:100CD000A00549D5B9696D1C24F44074761E0E98A0
:100CE00088478246002E0CDD2B2804D0BAF12D0F48
:100CF00007D144F48074B9696D1C0E988847824608
:100D0000761EE00501D52D2100E02B2108F8011BFE
:100D1000CDF82C8021E00DF12901761E44F40074F9
:100D200088450CD2AAF1300010F0FF0088F80000CE
:100D300002D10B99884509D908F1010806E0E005C0
:100D400001D5244801E042F20F708146B9696D1C5B
:100D50000E98884782460F980560002E04DD5046A5
:100D600004F08FF80028D6D1F9690E988847FF2043
:100D70008BF8000088F800000020069007904B4692
:100D80006A4608A906A8FFF777FEA00502D46FF00F
:100D900001002AE714F0240F0AD0E00714D1DDE99E
:100DA00006123868031D3B600068C0E900120BE0C2
:100DB000DDE90601FFF73CFB0146E00704D1386896
:100DC000021D3A600068016028460EE700001440EA
:100DD0000000F03FF1D8FFFF30BCBDE8C08F426893
:100DE00042B1016811F8013B23B1521EC0E9001263
:100DF000184670470121C160881E704742685AB189
:100E0000C368016843B983688B4205D0491E521CF0
:100E1000C0E90012002070474FF0FF3070472DE905
:100E2000F05F82460078002715468B460AF10104E0
:100E3000B946302801D09DB113E014F8010B012709
:100E4000782803D0582801D045B10AE00DB1102D03
:100E500007D10027102514F8010B02E0082500E057
:100E60000A250026B0460EE005FB080005FB06F14A
:100E7000012701EB10461FFA80F8B6F5803F00D33A
:100E8000B94614F8010B294600F01BF80028EBDAEC
:100E9000BBF1000F05D00FB1641E00E05446CBF843
:100EA0000040B9F1000F06D003F054FE02210160AA
:100EB000C81E00F003B848EA0640FAE730BCBDE8B7
:100EC000C09F3A2800D2303820F02002412A01D3B6
:100ED000A2F13700884201D34FF0FF3070470EB5C2
:100EE00040F2334202920022CDE900221346FFF77E
:100EF000BDFB03B000BDFEE7704710B590F82510AC
:100F00000024022903D00421C16301241AE00168EE
:100F10000A6822F00E020A6001680A6822F00102E3
:100F20000A6090F84410036C01F01C02012101FAE0
:100F300002F25A6080F82510002180F82410816B9D
:100F400001B18847204610BD70B5044600F0D8F8BE
:100F50000546601C00D0641C00F0D2F8401BA04283
:100F6000FAD370BD2DE9F84FDFF870B100230127E7
:100F70004FF0030A4FF00F090BF1040EA7E000BF7A
:100F800007FA03F6324070D04C68022C01D0122CC4
:100F900010D1DC0800EB8408D8F820405D074FEA48
:100FA000D56C09FA0CF5AC430D6905FA0CF525432F
:100FB000C8F82050D0F800805D0091F804C00AFA0B
:100FC00005F40CF0030C28EA04080CFA05FC4CEAC2
:100FD000080CC0F800C0D1F804C0BCF1010F08D063
:100FE000BCF1020F05D0BCF1110F02D0BCF1120F01
:100FF00016D1D0F808C0D1F80C802CEA040C08FAFD
:1010000005F848EA0C08C0F80880D0F804C02CEABB
:10101000060C0E79C6F300169E4046EA0C064660A2
:10102000C668A6438C68AC403443C4604C68E40096
:101030004CD52B4C256E45F001052566246E23F01A
:10104000030504F001040094264C2E19B4689D0792
:101050004FEA157C09FA0CF5AC43B0F1904F05D07E
:10106000214DA84204D1012508E02FE0002505E02C
:101070001E4DA84201D1022500E0072505FA0CF516
:101080002543B560DBF800405D464E689443F603A7
:1010900000D514432C60DEF8004075464E6894433A
:1010A000B60300D514432C600C4D08352C684E68EF
:1010B0009443F60200D514432C60084D0C352C687F
:1010C0004E689443B60200D514432C605B1C0A683A
:1010D00032FA03F47FF454AF00F00AB80004014080
:1010E00000100240000001400004004800080048D1
:1010F00018BCBDE8E08F0AB181617047816270471A
:1011000001480068704700003400002090F841203A
:10111000202A24D190F84020012A20D0012280F8F2
:101120004020242280F841200268136823F0010344
:1011300013600268136823F4805313600268136815
:101140000B43136001680A6842F001020A60202123
:1011500080F84110002180F84010084670470220B6
:10116000704790F84120202A22D190F84020012A8F
:101170001ED0012280F84020242280F841200268FD
:10118000136823F0010313600268136823F470638B
:1011900043EA0121116001680A6842F001020A6015
:1011A000202180F84110002180F840100846704747
:1011B000022070477047704730B403689A69196815
:1011C000D243D40509D4CC43240606D4446C44F05D
:1011D000010444644FF48074DC6153050AD4CB43AA
:1011E0001B0607D4436C43F00803436404684FF4C0
:1011F0008063E36192050AD4C943090607D4416CB0
:1012000041F00201416402684FF40071D161416C08
:1012100011F00B0F02D030BC01F0C0BB30BC7047E6
:10122000026891691268436B002B00D01847704721
:101230007047000070B5040004D094F84100002508
:1012400010B106E0012070BD84F84050204600F047
:101250000FFA242084F841002068016821F0010180
:1012600001606068216820F0706008612068816812
:1012700021F400418160E0680128A06807D040F4B3
:10128000044021688860E068022803D006E040F44A
:101290000040F6E721684FF400604860206841682C
:1012A000114A114341602068C16821F40041C160C6
:1012B000D4E904010843A16940EA01202168C8601B
:1012C000D4E907010843216808602068016841F0FB
:1012D000010101606564202084F84100256384F8E1
:1012E0004250002070BD0000008000022DE9FC4744
:1012F00000260446019690F841001F469246894612
:1013000020287ED120688069C043000479D594F8F4
:101310004000012875D0012084F84000242084F882
:10132000410066644FF02008E068012809D029F4E4
:10133000544040F4205021684860FFF7E1FE054624
:101340000DE0314949EA010030490840F3E7781CD3
:1013500005D0FFF7D5FE401BB84219D8C7B12168A8
:1013600088698969C0F34010C1F300110843EED0C9
:10137000206880693B46C043C0064FF000024FF032
:1013800020012046009517D501F030FD68BB09E02B
:1013900084F8418054F8440F40F0200044F80409D8
:1013A000267022E02168C1F81C8084F8418084F80E
:1013B0004060002000F02CB801F018FDA8B92168A9
:1013C0001020C8612168C1F81C800198504512D1D5
:1013D0002068416841F4804141603B460022202161
:1013E0002046009501F002FD10B10120E2E708E07F
:1013F0002168C1F81C800198401C0190504593D38E
:10140000C6E70220D6E7000000200002FF2300020A
:101410000CBCBDE8F08770472DE9F84F044690F802
:101420004100DDF828A01F4690468B4620287ED13B
:1014300094F8400001287AD0012084F84000FFF79A
:101440005FFE0646012200901923D103204601F0D9
:10145000CDFCE0BB222084F84100102084F842003B
:1014600000256564C4F8248067856563618D314813
:10147000FF274FF080784FF00079FF2903D92785A7
:101480003A46009039E0618D218500903AE0594656
:10149000204601F095FC13E001F0D4FCB8B92068B7
:1014A000406A616A0870606A401C6062208D401E5C
:1014B00080B22085618D491E6185618D01B168B161
:1014C000608D3246002851462046E5D100E002E01A
:1014D00001F0FAFCD0B1012000F030B853460022F0
:1014E00080212046009601F081FC0028F3D1608D18
:1014F000FF2804D927853A4600954346C7E7608D03
:101500002085009594F828204B46C0E721682020CC
:10151000C86121684A68084B1A404A6084F8410053
:1015200084F8425084F840500020D5E7FFE70220BD
:10153000D2E700000024008000E800FE18BCBDE8EF
:10154000E08F00002DE9F84F044690F84100DDF8E7
:1015500028A01F4690468B4620287ED194F8400054
:1015600001287AD0012084F84000FFF7C9FD064623
:10157000012200901923D103204601F037FCE0BB83
:10158000212084F84100102084F842000025656481
:10159000C4F8248067856563618D3148FF274FF06B
:1015A00080784FF00079FF2903D927853A460090CB
:1015B00039E0618D218500903AE05946204601F0DE
:1015C000FFFB13E001F0A6FCB8B9606A216800785F
:1015D0008862606A401C6062608D401E6085208D5C
:1015E000401E80B22085618D01B168B1608D3246A8
:1015F000002851462046E5D100E002E001F064FCFD
:10160000D0B1012000F030B853460022802120469E
:10161000009601F0EBFB0028F3D1608DFF2804D980
:1016200027853A4600954346C7E7608D208500959B
:1016300094F828204B46C0E721682020C861216823
:101640004A68084B1A404A6084F8410084F84250C6
:1016500084F840500020D5E7FFE70220D2E70000E1
:101660000020008000E800FE18BCBDE8E08F00000C
:1016700010B586B0044614216846FEF7FDFD1B49EF
:101680002068884230D11A4CE06C40F00100E064E0
:10169000E06C694600F0010005904FF4C0600090D6
:1016A0001220019001200290032003900420049056
:1016B0004FF09040FFF756FCA06D40F40010A0657D
:1016C000A06D002200F40010059011461F2000F0CC
:1016D00065F81F2000F056F800221146202000F087
:1016E0005DF8202000F04EF806B010BD0054004018
:1016F000001002407047704702480168491C0160B1
:10170000704700003400002010B50024032000F0D2
:1017100065F8002000F008F808B1012401E000F0AD
:101720001BF8204610BD000070B5054609484FF46F
:101730007A7100240068B0FBF1F000F051FD08B1AF
:10174000012404E000222946501E00F027F820461C
:1017500070BD000038000020094808B5016E41F056
:1017600001010166016E01F001010091816D41F0FE
:1017700080518165806D00F08050009008BD0000B0
:101780000010024000F01F0201219140400980003A
:1017900000F1E020C0F8001170470000F0B40E4BDB
:1017A0001B680C46C3F30223C3F10705042D00D9BF
:1017B0000425191D072901D2002300E0DB1E0126A4
:1017C00006FA05F1491E214099409E40761E1640BA
:1017D0003143F0BC01F0DABB0CED00E0064900F04B
:1017E000070208684FF6FF03184040EA0220034A48
:1017F00010430860704700000CED00E00000FA059F
:101800001649B0F5007F0868C0F3412009D00228CE
:1018100005D0086820F4C06040F4806008600020B3
:1018200070470128FBD0086820F4C06040F40070C5
:1018300008600B483222006850430A4AB0FBF2F0BD
:10184000401C00E0401E4A69520501D50028F9D12C
:1018500048694005E3D50320704700000070004050
:101860003800002040420F000248006800F4C060C9
:1018700070470000007000400248016841F4807128
:1018800001607047007000400248016841F00401A7
:1018900001607047001002402DE9F84F0446002710
:1018A00000889C4D3E46000515D5E06B60B1B0F553
:1018B000000F04D0B0F5400F2BD001270AE0E868F4
:1018C00040F48030E86024E00021201D01F070FB2E
:1018D00007001ED03E462068800338D5A86D4FF023
:1018E0000008C00009D4A86D40F08050A865A86D1C
:1018F0004FF0010800F080500090DFF81CA2DAF8E9
:10190000001041F48071CAF80010FFF7F9FB81461E
:1019100010E0D5F88800E16B20F440000843C5F8DA
:101920008800D8E7FFF7ECFBA0EB0900022801D9FB
:10193000032704E0DAF80000C005F3D5EFB33E4614
:10194000B8F1000F03D0A86D20F08050A865207872
:10195000C00707D0D5F88800216A20F003000843AB
:10196000C5F888002078800707D5D5F88800616A17
:1019700020F00C000843C5F888002078800607D5C1
:10198000D5F88800A16A20F440600843C5F88800B3
:101990002088800507D5D5F88800616B20F44020A9
:1019A0000843C5F888002088400509D5D5F8880087
:1019B000A16B20F44010084300E02EE0C5F8880039
:1019C0002078400607D5D5F88800E16A20F4405019
:1019D0000843C5F888002088C00507D5D5F88800D9
:1019E000216B20F440300843C5F8880020884FF070
:1019F000006780044FF080684ED5D5F88800216CD0
:101A000020F040600843C5F88800206CB8423BD104
:101A1000E86840F48010E8603EE0D5F8900010F4EB
:101A2000407014D0216D814211D0D5F89000D5F8C6
:101A3000901020F4407041F48031C5F89010D5F832
:101A4000901021F48031C5F89010C5F89000C007BF
:101A500011D0FFF755FB074641F2883907E000BF78
:101A6000FFF74EFBC11B494501D9032668E7D5F8AE
:101A700090008007F4D5D5F89000216D20F44070D7
:101A80000843C5F890005BE7404505D10121201DC2
:101A900001F08EFA00B106462068400317D5D5F84C
:101AA0008800616C20F040600843C5F88800606CD5
:101AB000B84204D1E86840F48010E86007E040458F
:101AC00005D10121201D01F073FA00B106462088DE
:101AD000400411D5D5F88800A16C20F0405008438F
:101AE000C5F88800A06CB0F1805F05D10221201DEF
:101AF00001F05EFA00B106462088000406D555F8CC
:101B0000880FE16C20F0804008432860304600F0E8
:101B100005B80000001002400070004018BCBDE88D
:101B2000E08F00002DE9F0470F46050058D03F4EEA
:101B3000306800F00700B84209D2306820F0070092
:101B400038433060306800F00700B84248D1287848
:101B5000374CC0072CD06868032811D0022812D057
:101B6000216898B1490500293ADAA16821F00301FA
:101B70000143A160FFF7C4FA804641F2883910E0C2
:101B800021688901EFE721688903ECE78907EAE723
:101B9000FFF7B6FAA0EB0801494502D90320BDE8DA
:101BA000F087A068696800F00C00B0EB810FEFD1FE
:101BB0002878800705D5A068A96820F0F0000843C0
:101BC000A060306800F00700B8420BD9306820F000
:101BD000070038433060306800F00700B84201D099
:101BE0000120DCE72878400705D5A068E96820F4E3
:101BF000E0600843A0602878000706D5A06829693E
:101C000020F4605040EAC100A06000F03BF8A168F9
:101C1000084AC1F30311515C01F01F01C840064995
:101C20000860BDE8F0470020FFF77EBD00200240BD
:101C3000001002405C620008380000200548064998
:101C400000688968054AC1F30221515C01F01F0157
:101C5000C840704738000020001002409C62000815
:101C60000548064900688968054AC1F3C221515CEC
:101C700001F01F01C84070473800002000100240EA
:101C80009C62000870B52549002318468A68CC6814
:101C900012F00C0204F00306214C4FEA640509D04F
:101CA0000C2A05D0042A26D0082A00D1284670BD67
:101CB000012E10D10B681B0704D4D1F89430C3F364
:101CC000032302E00B68C3F30313164E56F82330C8
:101CD0007AB10C2AEBD1C86800F00302C868C0F3DF
:101CE0000210401C022A08D0032A09D0B3FBF0F0EE
:101CF00008E0184670BD204670BDB4FBF0F001E06E
:101D0000B5FBF0F0CA68C968C2F306225043C1F3BC
:101D10004161491C4900B0FBF1F070BD0010024068
:101D20000024F4006C6200082DE9F84305007CD023
:101D3000FD4CA06800F00C06E06800F0030728786E
:101D4000C00662D576B10C2E01D1012F0AD0A86948
:101D50000028206878D040F001002060FFF7D0F91B
:101D6000804659E02068800702D5A8690028DED0A7
:101D7000296A2068000703D5206800F0F00004E01D
:101D8000D4F89400F02202EA1010814216D90846D5
:101D900001F0A4F9002848D1206840F00800206034
:101DA0002068296A20F0F000084320606068E96933
:101DB00020F47F4040EA0120606015E0206840F098
:101DC000080020602068296A20F0F00008432060A5
:101DD0006068E96920F47F4040EA01206060286A79
:101DE00001F07CF90028D6D1FFF74CFFA168CF4A5B
:101DF000C1F30311515C01F01F01C840CC490860D8
:101E00000020FFF791FC00287ED12EE0FFF778F943
:101E1000A0EB0800022878D820688007F6D5206853
:101E200040F008002060206801E0BBE00CE0296A77
:101E300020F0F000084320606068E96920F47F40EA
:101E400040EA0120606010E020F001002060FFF710
:101E500057F9804606E000BFFFF752F9A0EB0800F3
:101E60000228D8D820688007F6D42878C00740D048
:101E7000082E18D00C2E01D1032F14D06868B0F5AD
:101E8000803F17D0B0F5A02F206817D020F4803005
:101E90002060206820F4802020606868E0B1FFF7AF
:101EA0002FF9804614E02068800322D56868002856
:101EB00078D01EE0206840F48030EDE740F48020C8
:101EC0002060F7E7FFF71CF9A0EB08006428A2D810
:101ED00020688003F6D50CE0FFF712F9804605E094
:101EE000FFF70EF9A0EB0800642894D8206880035F
:101EF000F6D4287880073BD5042E11D00C2E01D1C2
:101F0000022F0DD0E86801E05EE1B8E0002820680B
:101F10001ED040F480702060FFF7F2F807460CE016
:101F2000206840050CD5E8680028C1D008E000BF53
:101F3000FFF7E6F8C01B022893D820684005F7D5C4
:101F40006068297C20F0F85040EA016060600FE092
:101F500020F480702060FFF7D3F8074605E000BF4B
:101F6000FFF7CEF8C01B0228B1D820684005F7D48F
:101F70002878000729D568690028D4F8940012D081
:101F800040F00100C4F89400FFF7BAF8074604E0F7
:101F9000FFF7B6F8C01B022871D8D4F89400800768
:101FA000F6D512E017E120F00100C4F89400FFF725
:101FB000A7F8074605E000BFFFF7A2F8C01B0228FC
:101FC0005DD8D4F894008007F6D42878400766D509
:101FD000A06D0027C00008D4A06D40F08050A0651F
:101FE000A06D012700F08050009052480168C9059B
:101FF00012D40168814641F480710160FFF780F8D6
:10200000804605E0FFF77CF8A0EB0800022836D8F0
:10201000D9F80000C005F5D5A868012816D0052814
:10202000D4F8900017D020F00100C4F89000D4F844
:10203000900020F0040000BFC4F89000A86841F2AE
:102040008839C0B1FFF75CF880460FE0D4F8900003
:1020500040F00100F0E740F00400C4F89000F5E71C
:10206000FFF74EF8A0EB0801494508D8D4F89000D6
:102070008007F5D50EE0FFF743F8804606E07CE0E8
:10208000FFF73EF8A0EB0801494576D8D4F8900058
:102090008007F5D41FB1A06D20F08050A06528788E
:1020A000800628D5686A0028D4F8980012D040F03D
:1020B0000100C4F89800FFF723F8074605E000BFC9
:1020C000FFF71EF8C01B02287DD8D4F898008007BF
:1020D000F6D510E020F00100C4F89800FFF710F8E2
:1020E000074604E0FFF70CF8C01B02286BD8D4F8B1
:1020F00098008007F6D4A86AF0B30C2E6BD00228A3
:10210000206820F08070206018D02068000103D47F
:10211000E06820F00300E060E06807490840E06004
:10212000FEF7EEFF054651E0001002405C62000839
:102130003800002000700040FFFFEEFEFEF7E0FFD9
:10214000064604E0FEF7DCFF801B02283BD820682F
:102150008001F7D4286B55F82C1F00011038084374
:10216000298A1E4A490802EB4151AA6841EA022124
:102170000843297D490801E02BE024E04FF07E422E
:1021800002EB41610843297B40EAC160E0602068BE
:1021900040F080702060E06840F08070E060FEF702
:1021A000AFFF054605E000BFFEF7AAFF401B02286F
:1021B00009D820688001F7D50BE000BFFEF7A0FF2B
:1021C000401B022802D90320BDE8F8832068800163
:1021D000F4D40020F8E70120F6E700000000E0FF5B
:1021E00010B5401EB0F1807F01D3012010BD4FF02B
:1021F000E02460610F21601700F0C8FE0020A0619C
:1022000007202061002010BD704770472DE9F04184
:1022100002680446D0691168936810F00F0F4FF000
:1022200000055BD003F0010601F49077374369D0D5
:10223000C70707D0CF0505D501271762626F42F0A7
:1022400001026267820708D5DA0706D027680222F2
:102250003A62626F42F004026267420708D5DA0709
:1022600006D0236804221A62626F42F0020262679B
:1022700002070AD501F02002324306D02368082263
:102280001A62626F42F008026267626F002A32D0FF
:10229000800605D5880603D5216E09B120468847FA
:1022A000606F000703D420688068400625D520466B
:1022B00001F014F820688168490619D5816821F079
:1022C00040018160E06E98B120498163E06EFEF7C5
:1022D00014FE00280FD0E06E816B06E0860611D553
:1022E0008E060FD5216E1EE02046BDE8F04108475E
:1022F0002046FFF78AFFBDE8F0812046FFF785FF03
:102300006567F8E7C60209D55B0207D54FF4801070
:1023100010622046BDE8F041FFF776BF030605D501
:102320000B0603D5616E0029DED1E4E74006E2D555
:102330004806E0D51168204621F0400111602021B7
:1023400084F87110656600F087FAD4E7C932000896
:1023500010B5040003D094F8710010B107E001201B
:1023600010BD002084F87000204600F027F82420DB
:1023700084F871002068016821F0010101602046A5
:1023800001F018F80128EBD0606A10B1204600F087
:1023900009FF2068416821F490414160206881680C
:1023A00021F02A0181602068016841F0010101608B
:1023B0002046BDE8104000F059BF000070B586B05F
:1023C000044614216846FDF757FF294E2568002171
:1023D0002848022203230724B54220D1056E45F484
:1023E00080450566056E05F480450595C56C45F08C
:1023F0000205C564C06C02AD00F00200059085E8DE
:102400001A00C020CDE9000269461B48FEF7AAFD6C
:10241000002211462520FFF7C1F9252023E0174EA1
:10242000B54222D1856D45F400358565856D05F48D
:1024300000350595C56C45F00105C564C06C02AD5D
:1024400000F00100059085E81A000C20CDE900029B
:1024500069464FF09040FEF785FD00221146262088
:10246000FFF79CF92620FFF78DF906B070BD00003C
:1024700000380140001002400004004800440040C1
:1024800030B590F87230202B4AD1B1B1AAB190F892
:102490007030012B44D0012380F870304165A0F8E2
:1024A0005820A0F85A20002202661D038168FF23ED
:1024B000A94207D1016911B10CE0012030BD40F201
:1024C000FF110DE07F2419B1B1F1805F05D009E063
:1024D000016901BBA0F85C3004E00169D9B13F217A
:1024E000A0F85C104267222180F8721001688B68A6
:1024F00043F001038B608168A94201D1016969B190
:102500000849016680F870200068016841F4907104
:102510000160002030BDA0F85C40E3E70249F0E72D
:10252000022030BD59330008FD32000830B5006884
:10253000444985B0884277D1012243494348FFF797
:102540009FFF4148801E807802F038F801F074F94E
:10255000002875D002F036FA02F05CF800286FD03F
:102560003B48008800903B4803783B4802783B4852
:1025700001783BA002F0DEFA3E4803783E4802783C
:102580003E4801783EA002F0D5FA424C42A02178A4
:1025900002F0D0FA4348017843A002F0CBFA207849
:1025A00000284DD044480068FDF72FFF04464348FB
:1025B0000D460068FDF729FF41EC100B404853EC35
:1025C000102B00780294CDE903503E48007800902B
:1025D0003DA002F0AFFA43480068FDF716FF41EC5A
:1025E000100B41A053EC102B02F0A4FA43480068F2
:1025F000FDF70BFF41EC100B41A053EC102B02F048
:1026000099FA43480068FDF700FF41EC100B41A028
:1026100053EC102B02F08EFA4348017843A005B02A
:10262000BDE8304002F086BA08491A22E03901F1CB
:102630006800FFF725FF054940A0E039EFE7FFE715
:1026400005B030BD00440040020000201011002001
:1026500056000020400000203F0000203E000020E7
:1026600054696D653A2025643A25643A25642E251F
:10267000750A0000410000204200002043000020B5
:10268000446174653A2025642F25642F3230256417
:102690000A000000470000204669783A2025640AB5
:1026A00000000000480000205175616C6974793A9F
:1026B0002025640A0000000068000020640000205B
:1026C00045000020440000204C6F636174696F6E08
:1026D0003A2025352E326625632C2025352E32668C
:1026E00025630A007400002053706565643A202554
:1026F000352E3266206B6E6F74730A0078000020EE
:10270000416E676C653A2025352E32660A0000005E
:1027100070000020416C7469747564653A20253539
:102720002E32660A000000004900002053617465E3
:102730006C6C697465733A2025640A0025730A007D
:102740002DE9F843044690F871001F4616460D46E1
:1027500020284BD1C5B1BEB194F87000012845D0F6
:10276000012084F870004FF00008C4F87480212024
:1027700084F87100FEF7C4FCA4F850608146A4F808
:1027800052604FF4805615E00120BDE8F8838021A7
:10279000204600F068FFD8B9A068B04201D1206996
:1027A000C0B115F8010B21680885B4F85200401E2D
:1027B000A4F85200B4F852004B464FF000020097C4
:1027C0000028E4D14FF04001204600F04CFF30B12A
:1027D0000320DAE735F8020BC0F30800E3E7202016
:1027E00084F8710084F870800020CEE70220CCE7E6
:1027F00090F87130202B29D1B9B1B2B190F8703076
:10280000012B23D0012380F87030C164A0F8502040
:10281000A0F85220002141664167212280F87120F2
:102820008268B2F5805F02D003E001207047026940
:1028300052B1074A426680F870100068016841F0A2
:102840008001016000207047024AF3E702207047D0
:102850002B360008E93500087047FEE70148FEF70F
:10286000ABBC00004C1000200148FEF7D9BC0000B2
:102870004C10002010B5806A0021826B9163C26BFE
:10288000916390F84110602902D0FEF7D1FC10BD91
:10289000202180F84110FEF78DFC10BD10B50022FC
:1028A000CC074FF0280306D090F84140422233EA8B
:1028B000040400D0F2228C0707D590F8414042F082
:1028C0004402A34301D042F0B0024B0701D542F0CD
:1028D000B80211238B4301D142F0900212238B43A3
:1028E00001D142F06002006801689143016010BDAF
:1028F00001688A69D243920701D400228A62006883
:102900008169C943C90703D0816941F0010181612F
:1029100070472DE9F041044690F841002821814399
:1029200020684FF000054FF0080304D0C36184F81D
:102930004050BDE8F0818169C1F300478169FE2202
:1029400002EA11468168C1F30902C168D4F80CC0DB
:1029500001F0FE01BCF1020F17D14FF0060C06F09A
:1029600006060CEAD21C66450ED1A16C491CA16476
:10297000A16C0229DDD1A564C36184F840503946B9
:102980002046FEF718FCD4E70E4604212046FFF748
:1029900085FF84F840503246F1E7000070B50446E8
:1029A00090F84100002584F84250314AE262658582
:1029B000626C0A4362642026282825D0292823D067
:1029C0002A2821D007212046FFF768FF94F841000C
:1029D000602801D084F84160256365632068016840
:1029E0004A04244902681AD522F480420260A06B8E
:1029F000002833D0816384F84050A06BFEF77DFA45
:102A000000282BD0A06B1CE003212046FFF746FFD7
:102A1000282084F84100256317486063DEE712042C
:102A200013D5026822F400420260E06B002815D042
:102A3000816384F84050E06BFEF75FFA00280DD008
:102A4000E06B816BBDE87040084794F84100602856
:102A500005D084F840502046FEF7EAFB70BD84F8AC
:102A6000416084F840502046FEF7A4FB70BD000092
:102A70000000FFFF75280008A12C000870B504466F
:102A80001548E06200252563202084F8410084F881
:102A90004250C8436563400711D42068406A616AA8
:102AA0000870606A401C6062208D40B1401E208525
:102AB000608D401E6085606C40F0040060640721FA
:102AC0002046FFF7EBFE21681020C86184F84050D3
:102AD0002046FEF7A0FC70BD0000FFFF2DE9F0418D
:102AE000044600680E4607682025C5612168082055
:102AF000C86107212046FFF7D1FE2068416841F4F4
:102B000000414160206841682D4A114041602046E3
:102B1000FFF7EEFEF843410401D4A06B02E000048D
:102B200004D4E06B10B1006840686085F043400752
:102B30000DD42068406A616A0870606A401C606257
:102B4000208D20B1401E2085608D401E6085608DE7
:102B500018B1606C40F0040060640020206384F8C9
:102B600042006063616C69B1616C2046FFF716FF3B
:102B700094F84100282811D131462046BDE8F041A3
:102B8000FFF77CBFE26A0F498A4209D0E16284F80C
:102B9000415084F840002046FEF73DFCBDE8F0813E
:102BA00094F8411084F84150222984F840002046CE
:102BB00002D0FEF7A0FDF1E7FEF79CFDEEE7000076
:102BC00000E800FE0000FFFF70B50025044680F815
:102BD000425090F841102820292911D094F8411032
:102BE0002A290CD184F841002220206302212046AA
:102BF000FFF754FE84F840502046FEF77BFD70BD81
:102C000084F841002120206301212046FFF746FE81
:102C100084F840502046FEF76EFD70BD2DE9F0416E
:102C20000446006890460E468069C043C00633D40F
:102C30000025202720688069C043800615D5701CB8
:102C4000F8D0FEF75DFAA0EB0800B04201D8002EE4
:102C5000F0D154F8440F40F0200044F804096770A4
:102C6000A57025700120BDE8F08121681020C861A1
:102C70002068C7612046FFF73BFE54F8440B4168CB
:102C8000064A11404160206840F0040044F82009E1
:102C90006777A5772577E5E70020E4E700E800FE01
:102CA0002DE9F0410446C06A0F4694F8401001290E
:102CB0001DD0012184F84010FE43404BF1064FF037
:102CC000807C6FEA020531D4E9062FD4628D102191
:102CD00082B12268D161616C41F00401616408B184
:102CE00060455ED1616C2046FFF758FE59E0022036
:102CF000BDE8F08194F84120282A02D1B0F1007F8C
:102D000004D094F84120292A05D00CE03946204609
:102D1000FFF7B4FE45E0984205D02068C161204627
:102D2000FFF7E6FD3AE02068C1613AE0710715D48B
:102D3000690713D4618D61B12168496A626A1170B3
:102D4000616A491C6162218D491E2185618D491E80
:102D50006185618D29BB984220D122E0310706D4DC
:102D6000290704D439462046FFF7D3FD19E0B107FF
:102D700017D4A90715D4618D69B1606A21680078FC
:102D80008862606A401C6062608D401E6085208D94
:102D9000401E208505E0604500D010B92046FFF7B1
:102DA00013FFB00605D4A80603D439462046FFF722
:102DB00095FE002084F840009AE700000000FFFF25
:102DC000F0B50568059C68684FF48066064FC1F34E
:102DD000090106EA545641EA02413E431943B04311
:102DE000214308436860F0BDFF63FF032DE9F04114
:102DF0001D4617460E460446DDF8188008E0681C9C
:102E000006D0FEF77DF9A0EB0800A8420BD855B11B
:102E10002068806936EA000012D00020B842EED067
:102E20000020BDE8F08154F8440F40F0200044F841
:102E30000409202060700020A07020700120F0E7BD
:102E40000120EBE72DE9F041002690460F460446AD
:102E5000202525E0424639462046FFF7DFFE78BBB5
:102E600020688069C043800613D420688169C94303
:102E7000490701D4218DC1B9C56154F8440B41689B
:102E8000104A1140416044F820696577A67726779B
:102E900016E0FEF735F9A0EB0800B84208D83FB1BC
:102EA00020688069C0434007D4D40020BDE8F08189
:102EB00054F8440F40F0200044F80409657026706F
:102EC0000120F3E700E800FE70B516460D46044603
:102ED0000DE0324629462046FFF7A0FE08B101204A
:102EE00070BDFEF70DF9801BA84207D835B12068E8
:102EF0008069C0438006ECD4002070BD54F8440FB4
:102F000040F0200044F80409202060700020A070E8
:102F10002070E4E770B516460D4604460FE03246D1
:102F200029462046FFF77AFE08B1012070BD681CD3
:102F300005D0FEF7E5F8801BA84207D835B1206818
:102F40008069C0438007EAD4002070BD54F8440F64
:102F500040F0200044F80409202060700020A07098
:102F60002070E2E707490968C9070AD00549803996
:102F70000968C90705D04FF060410A68002AFCD0F3
:102F800008707047800E00E0FEE770470907090EE1
:102F9000002806DA00F00F0000F1E02080F8141D90
:102FA000704700F1E02080F800147047704700007F
:102FB0002DE9F041444C05468846E068002681072B
:102FC00028680DD0E16801F00301814216D1A8B153
:102FD000E0686968C0F30210401C88420ED120E00E
:102FE000012804D0022805D0032807D108E0216871
:102FF000890701E021684905002907DB01265FE018
:103000002168890302D421684903F5E7E1686A6809
:103010006FF00F0321F0730103EB02121143014320
:10302000E160206820F080602060FEF769F80746C4
:1030300005E000BFFEF764F8C01B022837D82068FF
:103040000001F7D4B8F1000F18D0B8F1010F1DD06E
:10305000287D4FF07E41400801EB4060A96840EABE
:1030600001202169194A114008432061206840F07D
:1030700080602060FEF744F807461AE0A868297BC4
:10308000000240EAC1602169114AECE7288A11492F
:10309000400801EB4050A96840EA012021690E4A2E
:1030A000E1E700BFFEF72CF8C01B022801D9032678
:1030B00006E020680001F5D52069A9690843206170
:1030C0003046BDE8F081000000100240FF80FFF9AB
:1030D000FF80FF070000E0FFFF809FFFF8B51C4D59
:1030E00006460024A86DC00002D5FEF7BDFB0DE02A
:1030F000A86D40F08050A865A86D00F08050009049
:10310000FEF7B2FBA96D21F08051A965B0F5007FF3
:1031100004D0802E07D94FF003040AE0802E08D98E
:10312000A02E01D804E001D1022402E0702E00D1CB
:1031300001240848016821F007012143016000686B
:1031400000F00700A04201D00120F8BD0020F8BD2A
:1031500000100240002002407047FEF7CDBA000088
:103160000D48016841F4700101600C48016841F0AC
:1031700001010160002181600268094B1A40026070
:103180008214C260026822F48022026081610249D6
:10319000C00380390860704788ED00E000100240ED
:1031A000FFFFF6EA90F82410C90706D001684A68C4
:1031B000836A22F400321A434A6090F82410890787
:1031C00006D501684A68C36A22F480321A434A600D
:1031D00090F82410490706D501684A68036B22F469
:1031E00080221A434A6090F82410090706D5016826
:1031F0004A68436B22F400421A434A6090F8241054
:10320000C90606D501688A68836B22F480521A4386
:103210008A6090F82410890606D501688A68C36B15
:1032200022F400521A438A6090F82410490611D5FE
:1032300001684A68036C22F480121A434A60016CE8
:10324000B1F5801F06D101684A68436C22F4C002C0
:103250001A434A6090F82410090606D501684A68A6
:10326000806C22F4002202434A607047F8B50026C1
:1032700004464667FDF744FF0546206800686FF086
:103280007E47000708D52B4600224FF40011204648
:10329000009700F0E8F960B92068006840070AD597
:1032A0002B4600224FF480012046009700F0DBF906
:1032B00008B10320F8BD202084F8710084F8720062
:1032C00084F870600020F8BD10B5806A0021A0F875
:1032D0005A10A0F85210FEF798FF10BD01680A6856
:1032E00022F490720A6001688A6822F001028A6002
:1032F000202180F8721000210166704710B5B0F8E7
:103300005C2090F872300168222B04D0088B40F0CA
:103310000800088310BD898C436D11401980416DF0
:10332000891C4165B0F85A10491E0904090CA0F81F
:103330005A10EFD101680A6822F490720A6001689D
:103340008A6822F001028A60202180F87210002130
:103350000166FFF7EBF810BD10B5B0F85C2090F8EF
:1033600072300168222B04D0088B40F008000883DB
:1033700010BD898C1140426D531C43651170B0F82B
:103380005A10491E0904090CA0F85A10F0D101681E
:103390000A6822F490720A6001688A6822F00102C9
:1033A0008A60202180F8721000210166FFF7BEF8C4
:1033B00010BD00002DE9F0410446026880682369D1
:1033C000E6691843636910250027334318437D4994
:1033D00013687D4E33400343136020684268E368FE
:1033E00022F440521A4342602268A0698A4201D006
:1033F000236A1843936823F4306303439360734A4A
:103400002368734893420DD1D0F8880010F0030070
:1034100006D001282AD0022826D0032829D127E067
:10342000012526E06B4A93420BD1D0F8880010F0BA
:103430000C0017D0042819D0082815D00C2818D152
:1034400016E08B4215D1D0F8880010F4406009D006
:10345000B0F5806F0AD0B0F5006F05D0B0F5406FC1
:1034600007D105E0002504E0022502E0042500E084
:103470000825594A00264FF400408B423DD135B112
:10348000022D07D0042D07D0082D10D107E0FEF73C
:10349000D5FB03E0104602E0FEF7F4FBA8B3626838
:1034A00002EB4201814202D8B0EB023F01D9012771
:1034B00075E0DFF828815DB1022D0CD0042D13D00A
:1034C000082DF4D150082905401846F1000105E007
:1034D000FEF7B4FB0AE050084149F5E70023FCF78A
:1034E00071FEA0F5407156E0FEF7CCFB6268010E5C
:1034F0000302500818187141F0E7E1694FF6EF78C0
:1035000081422FD1092DD2D200E048E0DFE805F05A
:1035100006092005230505052600C8E7FEF78EFBF2
:1035200001E0FEF79DFB4100D4F8040001EB5001DF
:10353000B1FBF0F080B2A0F110014145B7D84FF6D1
:10354000F0710140C0F3420001432068C16026E0F1
:1035500024496068EAE7FEF795FBE4E74FF4803121
:103560006068E3E7092DA2D2DFE805F006091E0531
:103570002205050525009AE7FEF760FB01E0FEF74E
:103580006FFB0146606801EB500100BFB1FBF0F03A
:1035900080B2A0F11001414589D82168C860266633
:1035A00038466666BDE8F081606802EB5001EDE7E1
:1035B000FEF768FBE5E7616800EB5100B0FBF1F056
:1035C000E6E7000000800040F369FFEF00380140AB
:1035D00000100240004400400024F400FFFC0F00F3
:1035E000000024F40048E80190F87110212910D15E
:1035F000B0F8521071B1C16C02680988C1F30801BA
:103600001185C16C891CC164B0F85210491EA0F824
:103610005210704701680A6822F080020A60006850
:10362000016841F040010160704790F87110212954
:103630000DD1B0F8521059B1C16C4A1CC264026875
:1036400009781185B0F85210491EA0F85210704741
:1036500001680A6822F080020A600068016841F08F
:103660004001016070472DE9F041984617460E462B
:103670000446069D1DE0681C1BD02DB1FDF740FDE2
:10368000A0EB0800A84214D92068016821F4D07189
:1036900001602068816821F001018160202084F8A8
:1036A000710084F87200002084F870000320BDE8E7
:1036B000F0812068C06936EA000004D00020B842DA
:1036C000D9D00020F3E70120F9E700000148FEF718
:1036D0009DBD0000981000200148FEF797BD000036
:1036E00010110020FEE700001448002101708175D0
:1036F0000183134A02627832426241730173C171DD
:10370000817141710171C170817081724172017268
:10371000C1729FED0C0A418380ED110A80ED100A01
:1037200080ED0F0A80ED0E0A80ED0D0A80ED0C0A87
:1037300080ED0B0A80ED0A0A704700003C00002073
:10374000E8280020000000000FB410B50BA0209C5A
:10375000214601F0EFF92046FCF7B5FD81B208A043
:1037600001F0E8F964230422214602A8FEF7E8FFED
:103770003220FDF7E9FB10BC5DF814FB25730A004D
:1037800025640A00FFF7B0BF10B586B01421684663
:10379000FCF772FD1548C16C41F00401C164C16CB5
:1037A00001F004010591C16C41F00101C164C16CDB
:1037B00001F001010591C16C41F00201C164C06CCE
:1037C0000B4C00F002000590002208212046FDF776
:1037D00092FC0820009001200021CDE90101039115
:1037E00069462046FDF7BEFB06B010BD0010024042
:1037F000000400480E4810B50C4901600D494160B5
:1038000000210122C0E90212016141618161C161AF
:103810000162FDF70FFD00210548FDF777FCBDE8CB
:10382000104000210248FDF79CBC000000540040FD
:103830004C100020BB7C70000148007870470000ED
:103840003C0000202DE9F8418046DDE907060090A4
:1038500017460C46099D404600F063FC33463A4645
:103860002146404600F00AFC2068A84200DB2846BA
:103870002060BDE8F881000030B5012312E000BFF0
:1038800050F823401A4602E040F82250521E002A07
:1038900005DD00EB820555F8045CA542F4DC40F838
:1038A00022405B1C8B42EBDB30BD000010B5ACB09E
:1038B00044216846FCF7E0FC142126A8FCF7DCFC58
:1038C000542111A8FCF7D8FCFDF7D6FF1B4850F88F
:1038D000901F21F018010160142000900120029037
:1038E000002460210690CDE907410221CDE90A10AC
:1038F0000C9010200D900720CDE90E016846109124
:10390000FEF712FA0F2026900320CDE92704299410
:10391000012126A82A94FEF705F943201190199455
:103920001A941C9411A8FDF7B7FF4FF40070FDF72F
:1039300067FFFDF7A9FF2CB010BD0000001002408A
:103940000948084901604FF4165141600021816027
:103950000C22C160C0E904128161C161016241624F
:10396000FEF7F6BC003801409810002009480849CD
:1039700001604FF416514160002181600C22C1604A
:10398000C0E904128161C16101624162FEF7E0BCDD
:1039900000440040101100200FB42A2270B5A4B0DA
:1039A00028A911A8FCF74FFCBDF8CA00ADF86E00BD
:1039B00033981C9034981D9035A90D220E461EA8F0
:1039C000FCF741FC9DF8E1008DF885009DF8E200D0
:1039D0008DF88600399822903A982390C0210220D1
:1039E000CDE90F013C2215A96846FCF72CFC11AC6F
:1039F00094E80F0000F02BFB00287DD02A2228A994
:103A000011A8FCF720FCBDF8CA00ADF86E00339891
:103A10001C9034981D900D2231461EA8FCF713FC13
:103A20009DF8E1008DF885009DF8E2008DF8860094
:103A3000399822903A98239000240325CDE90F5419
:103A40003C2215A96846FCF7FEFB0DF1440C9CE8EE
:103A50000F0000F0FCFA00284ED02A2228A911A855
:103A6000FCF7F1FBBDF8CA00ADF86E0033981C906E
:103A700034981D900D2231461EA8FCF7E4FB9DF8FA
:103A8000E1008DF885009DF8E2008DF886003998F8
:103A900022903A9823900420CDE90F043C2215A9E6
:103AA0006846FCF7D0FB0DF1440C9CE80F0000F0D9
:103AB000CEFA002820D02A2228A911A8FCF7C3FB9F
:103AC000BDF8CA00ADF86E0033981C9034981D9074
:103AD0000D2231461EA8FCF7B6FB9DF8E1008DF8DB
:103AE00085009DF8E2008DF88600399822903A987A
:103AF000239005203C2200E08BE0CDE90F0415A9BE
:103B00006846FCF7A0FB0DF1440C9CE80F0000F0A8
:103B10009EFA00287DD02A2228A911A8FCF793FB41
:103B2000BDF8CA00ADF86E0033981C9034981D9013
:103B30000D2231461EA8FCF786FB9DF8E1008DF8AA
:103B400085009DF8E2008DF88600399822903A9819
:103B500023900620CDE90F043C2215A96846FCF706
:103B600072FB0DF1440C9CE80F0000F070FA002885
:103B70004FD02A2228A911A8FCF765FBBDF8CA007E
:103B8000ADF86E0033981C9034981D900D2231468C
:103B90001EA8FCF758FB9DF8E1008DF885009DF804
:103BA000E2008DF88600399822903A9823900F21F0
:103BB0000820CDE90F013C2215A96846FCF743FB1C
:103BC00011AC94E80F0000F042FA002821D02A221C
:103BD00028A911A8FCF737FBBDF8CA00ADF86E00A4
:103BE00033981C9034981D900D2231461EA8FCF786
:103BF0002AFB9DF8E1008DF885009DF8E2008DF824
:103C00008600399822903A98239009203C2215A9E1
:103C100000E089E0CDE90F056846FCF714FB94E865
:103C20000F0000F014FA00287ED02A2228A911A83B
:103C3000FCF709FBBDF8CA00ADF86E0033981C9084
:103C400034981D900D2231461EA8FCF7FCFA9DF811
:103C5000E1008DF885009DF8E2008DF88600399826
:103C600022903A98239027210A20CDE90F013C2287
:103C700015A96846FCF7E7FA94E80F0000F0E7F9A9
:103C8000002851D02A2228A911A8FCF7DCFABDF897
:103C9000CA00ADF86E0033981C9034981D900D2228
:103CA00031461EA8FCF7CFFA9DF8E1008DF885009B
:103CB0009DF8E2008DF88600399822903A9823907A
:103CC00024240C20CDE90F043C2215A96846FCF7FA
:103CD000BAFA11AD95E80F0000F0B9F900285CD0F0
:103CE0002A2228A911A8FCF7AEFABDF8CA00ADF83F
:103CF0006E0033981C9034981D900D2231461EA8FA
:103D0000FCF7A1FA9DF8E1008DF885009DF8E2002E
:103D10008DF88600399822903A9823900D20CDE9AD
:103D20000F043C2215A900E037E06846FCF78BFA47
:103D300095E80F0000F08BF900282ED02A2228A940
:103D400011A8FCF780FABDF8CA00ADF86E003398F0
:103D50001C9034981D900D2231461EA8FCF773FA72
:103D60009DF8E1008DF885009DF8E2008DF8860051
:103D7000399822903A9823907F211020CDE90F01A5
:103D80003C2215A96846FCF75EFA11AC94E80F00D6
:103D900000F05DF9002800D0012024B070BC5DF86F
:103DA00014FB0FB42A2200B5A5B026A911A8FCF770
:103DB0004AFABDF8C200ADF86E0031981C903298F6
:103DC0001D900D2233A91EA8FCF73DFA9DF8D900DD
:103DD0008DF885009DF8DA008DF8860037982290DE
:103DE0003898239040210920CDE90F013C2215A9E4
:103DF0006846FCF728FA0DF1440C9CE80F0000F02F
:103E000026F9002800D0012025B05DF814FB0FB47E
:103E10002A2210B5A6B028A90FA8FCF714FABDF8FD
:103E2000CA00ADF8660033981A9034981B9035A9F3
:103E30000D220C461CA8FCF706FA9DF8E1008DF84F
:103E40007D009DF8E2008DF87E00399820903A9828
:103E500021903C2213A96846FCF7F5F90DF13C0CC2
:103E60009CE80F00FFF79DFF2A2228A911A8FCF764
:103E7000EAF9BDF8CA00ADF86E0033981C9034988A
:103E80001D900D2221461EA8FCF7DDF99DF8E100EA
:103E90008DF885009DF8E2008DF886003998229013
:103EA0003A98239024A90020CDE90F013C2215A9BE
:103EB0006846FCF7C8F911AC94E80F0000F004F86C
:103EC00026B010BC5DF814FB0FB4AE217CB50A25FA
:103ED000DDE919068DF804000024012301AA06A8D3
:103EE0000095FDF72FFB38B9012301AAAF2106A8E1
:103EF0000095FDF791FA08B1012402E09DF8040055
:103F0000307084F001007CBC5DF814FB0FB42A22F1
:103F10002DE9F041A8B00026DDE941542EA92E601C
:103F200011A82660FCF78FF9BDF8E200ADF86E002D
:103F300039981C903A981D903BA90D2288461EA8DE
:103F4000FCF781F99DF8F9008DF885009DF8FA00DD
:103F50008DF886003F9822904098239026AF3C220F
:103F600015A96846CDE90F67FCF76DF911AE96E823
:103F70000F00FFF7A9FF2A222EA911A8FCF763F969
:103F8000BDF8E200ADF86E0039981C903A981D908B
:103F90000D2241461EA8FCF756F99DF8F9008DF850
:103FA00085009DF8FA008DF886003F982290409891
:103FB00023900120CDE90F073C2215A96846FCF7A4
:103FC00042F996E80F00FFF77FFF07208DF8900079
:103FD0000A26012324AAAE212EA80096FDF7B2FAE4
:103FE00038B9062324AAAF212EA80096FDF714FAAB
:103FF00028B1002028B0BDE8F0015DF814FB9DF861
:104000009000296801EB004129609DF8910001EBC7
:10401000002028609DF89210084428609DF89300C5
:10402000216801EB004020609DF8941000EB012016
:1040300020609DF89510084420602868C0F31100A6
:1040400028602068C0F3110020600120D2E70FB47F
:104050001CB50223DDE917018DF804000A208DF854
:104060000510009001AAAE2104A8FDF76BFA18B163
:1040700000201CBC5DF814FB0120FAE72DE9F04399
:104080001E4613460C460A6805460146184600F0CF
:104090002BF84FF0FF3840461CE00A46411CC6F1A1
:1040A0000009216013E000BF55F82170431C19D0AE
:1040B00055F82030FB1AB34201DC4B4506DA236881
:1040C0004FEA830C5B1C236045F80C70491C91423D
:1040D000EADB401C21688142DFDC2846BDE8F04372
:1040E000FFF7CABB4346E5E7F0B5012416E000BF81
:1040F00051F82450234602E041F823605B1E002B58
:1041000009DD01EB830650F8257056F8046C50F871
:1041100026C06745F0DC41F82350641C9442E7DB7D
:10412000F0BD2DE9F043814600240120DDF81C801C
:104130005E1E0C6026E052F82070474521DD02EB40
:10414000800454F8044CA7421BDD012500E06D1CDF
:1041500044199C4203DA52F824C06745F7D005445D
:1041600052F82550AF420ADD0D680F2D07DA4FEAED
:10417000850C6D1C0D6049F80C00601C02E02046A7
:1041800000E0401CB042D6DBBDE8F0832DE9FF4FD4
:10419000BFB00D46DDE94C9600211C46084604E000
:1041A0003F9A52F82020401C1144A842F8DBB1FB92
:1041B000F5F20020F64906E03F9B53F820309B1AA9
:1041C00041F82030401CA842F6DB002001EB8002C1
:1041D00051F8203057683B44D2E902723A441A44FD
:1041E000D31702EB9372921041F82020401CB0F5D7
:1041F000F87FEBDBE74A00204FF4F77301EB800711
:104200008A46D7F804C051F82070ACEB070742F893
:104210002070401C9842F1DD5FF0000002EB800747
:1042200052F820107F689B46394401EBD171491048
:1042300042F82010401C5845F0DBD74F002096462E
:1042400000230146421D08E0A1EB00085EF821C0F2
:1042500037F81880491C0CFB18339142F4DB40F20C
:104260007A4193FBF1F14EF82010401C7346B0F5F3
:10427000F47FE5DD002210464FEA0B0753F82010CB
:10428000002900DC4942401C0A445845F6DD40F252
:10429000EF1392FBF3F00822CDE900020521029111
:1042A000BC4A3CA912A8FFF7CDFA00233C9A12A8F9
:1042B0009E46022A1ADB01210AE000BF00EB810CB6
:1042C00050F821705CF804CC491CA7EB0C073B4468
:1042D0009142F3DB521E93FBF2F141F2707292FBBA
:1042E000F1F131604E9A0121117002E04E9A82F88C
:1042F00000E0316840F22622914201DD326003E0A5
:10430000282901DA282131603168283900EE101A95
:10431000B8EEC00ADFEDA10A80EE201A9FEDA00AD8
:10432000DFEDA00A002141EE000ABDEEE00A86EDB5
:10433000000A3C9F07E000BF50F8213022AA9B1CD6
:1043400042F82130491CB942F6DB9749D04600209B
:104350008A460AE03F9951F8201048F82010419908
:1043600051F820104AF82010401CA842F2DB00222D
:10437000134620E022A8012650F823003506411DEF
:10438000594517DCA0F1050CBCF1000F12DD401FF0
:104390000CE000BF58F820C0AC4506DA06B1002694
:1043A00065460DF10C0C4CF82300401C8842F1DBF3
:1043B00006B9521C5B1CBB42DCDB022A04DA89F81A
:1043C00000E043B000F0F6B800204FF4F877514613
:1043D00008EB800358F820505E683544D3E9026347
:1043E00033442B44DD1703EB95739B1048F82030C2
:1043F00001EB800351F820505E683544D3E9026335
:1044000033442B44DD1703EB95739B1041F82030A8
:10441000401CB842DCDB00200DF1DC0B3D9000239A
:104420004BF82030401C0528F9DB00204FF4FA75CA
:1044300009E003AB53F82030AB4203DD002189F8DB
:104440000010BEE7401C9042F3DB0025A2F1010AF8
:104450005CE000BF03A800EB850650F825E0766815
:104460004FF07F43A6EB0E001A4631900A284CDD30
:1044700070460CE058F82070974201DD3A463390C0
:1044800051F820709F4201DD3B463290401C86422D
:10449000F0DC51F8267051F82E003E90DDF8C8C0CF
:1044A000381AACEB0E077843319F90FBF7F73E9834
:1044B000384451F82C70381A029058F8266058F891
:1044C0002EC0339FA6EB0C00A7EB0E067043319E67
:1044D00090FBF6F606EB0C00329E58F82660361A72
:1044E00002985E435043C211F01100280DDD3D9B40
:1044F000052B0ADA4AB164235A4392FBF0F33D9844
:104500004BF820303D98401C3D906D1C5545A1DB7B
:1045100058463D99FFF7B0F93D9800EBD070401038
:1045200001280ADD0BEB80025BF8200052F8042C16
:10453000104400EBD070401001E05BF82000C11E79
:10454000B52905D214493E31085C0121206000E004
:10455000002189F800102068642801DD642002E051
:10456000462801DA46202060463800EE100AF8EEB0
:10457000C00A9FED0E0A20EE801A9FED0D0AF3EEA1
:104580000D0A01EE200ABDEEC00A84ED000A18E70C
:104590004819002088110020A46200080000FF4391
:1045A0000000704200002042182100200000003D61
:1045B00000008C4230BCBDE8C08F000030B513490C
:1045C000002324280A6A02D00A2804D012E00C8BA7
:1045D00013550B830EE00C8B13550D4C04F178052D
:1045E000A24202D1C1E9085401E0C1E908450B83A8
:1045F00001220A700A8B0B6A1344521C0A8318703A
:104600000A8B782A01D377220A8330BD3C00002030
:10461000E82800202DE9F05F07462DED048BFBF71D
:1046200052FE384410F8040C2A2819D13846FBF7FA
:104630004AFE384410F8030C00F0CCF93846FBF77A
:1046400042FE384410F8020C00F0C4F9012401E0E5
:10465000641CE4B23846FBF736FE001FA042F7D8D0
:104660003846CDA1FBF713FE9FEDCD9B9FEDCE8B82
:1046700064250026DFF8389300284FF04E0A4FF0EB
:10468000530B42F21074384676D02C2100F04FFACA
:10469000401C074600F064FA51EC100BFBF7C8FE13
:1046A00000EE900AC846BCEEE00A10EE100AB0FB1D
:1046B000F4F189F80210B0FBF4F104FB1101B1FB35
:1046C000F5F189F80310B0FBF5F105FB110089F84D
:1046D000040010EE900AFBF798FE41EC100BB0EED0
:1046E000491AF0EE691A00F057FA53EC182B51EC06
:1046F000100BFBF7FCFDFBF76FFEA8F81A002C214E
:10470000384600F014FA401C044600F029FA51EC37
:10471000100BFBF78DFEC8F828002C21204600F076
:1047200006FA10F8011F4E2904D0532905D02C2970
:1047300006D0F2E088F808A004E088F808B001E0AC
:1047400088F808602C2100F0F2F9401C044600F0C3
:1047500007FA51EC100BFBF76BFEC8F82C002C216C
:10476000204600F0E4F910F8011F572905D045292B
:1047700003D02C2904D0D0E045E088F8091001E0EE
:1047800088F809602C2100F0D2F9401C0446FBF7A0
:10479000A1FD88F80C002C21204600F0C8F9401C2F
:1047A0000446FBF797FD88F80D002C21204600F009
:1047B000BEF9401C044600F0D3F951EC100BFBF796
:1047C00037FEC8F844002C21204600F0B0F9401C08
:1047D000044600F0C5F951EC100BFBF729FEC8F8B0
:1047E00034002C21204600F0A2F92C21401C00F0BE
:1047F0009EF9401C00F0B4F951EC100BFBF718FEC9
:10480000C8F83000C5E06BA1FBF741FD00287DD062
:1048100038462C2100F08BF9401C074600F0A0F927
:1048200051EC100BFBF704FE00EE900A2146A04667
:10483000BCEEE00A4C4610EE100AB0FBF1F289F82B
:104840000220B0FBF1F208FB1201B1FBF5F189F88F
:104850000310B0FBF5F105FB110089F8040010EE20
:10486000900AFBF7D2FD41EC100BB0EE491AF0EEC6
:10487000691A00F091F953EC182B51EC100BFBF76F
:1048800036FDFBF7A9FD60832C21384600F04FF977
:1048900010F8011F412902D0562903D03DE0012123
:1048A000E17200E0E6722C2100F041F9401C07465D
:1048B00000F056F951EC100BFBF7BAFDA0622C2169
:1048C000384600F034F910F8011F4E2904D053295E
:1048D00005D02C2906D020E084F808A003E084F855
:1048E00008B000E026722C2100F021F9401C074698
:1048F00000F036F951EC100BFBF79AFDE0622C2129
:10490000384600F014F910F8011F00E006E05729BE
:1049100008D0452906D02C2906D00020BDEC048BF8
:1049200000F04CB8617200E066722C2100F0FFF8D4
:10493000401C064600F014F951EC100BFBF778FD13
:10494000A0632C21304600F0F2F8401C064600F02F
:1049500007F951EC100BFBF76BFDE0632C2130469F
:1049600000F0E5F8401C00F0FBF851EC100BFBF7F1
:1049700033FD4146B0FBF1F2E271B0FBF8F208FB07
:104980001201B1FBF5F1A171B0FBF5F105FB1100CE
:1049900060710120C2E700002447504747410000F2
:1049A000000000000000F03F0000000000408F40C9
:1049B0003C000020244750524D43000030BCBDE86D
:1049C000C09F0000024800210170406A704700004B
:1049D0003C000020302805D3392801D8303806E0C3
:1049E000412801D2002070474628FCD83738C0B291
:1049F000704700002DE9F04F494C0027DFF8248173
:104A0000A5B04648C4E907073D4608F1340BA8F2B3
:104A1000EC79A8F6BC7A77E01420FCF795FA2A2204
:104A2000404911A8FBF70FFCB8F82A004646ADF83C
:104A30006E00D8F82C001C90D8F830001D900D2284
:104A400059461EA8FBF7FFFB96F841008DF885003C
:104A500096F842008DF88600706C2290B06C23901E
:104A60000AEB850109EB8500CDE90F013C2215A970
:104A70006846FBF7E8FB11AE96E80F00FFF746FA31
:104A8000060000D17F1C052F2BDD2A2225490FA807
:104A9000FBF7D9FBB8F82A004746ADF86600D8F80E
:104AA0002C001A90D8F830001B900D2259461CA8F3
:104AB000FBF7C9FB97F841008DF87D0097F842009D
:104AC0008DF87E00786C2090B86C21903C2213A960
:104AD0006846FBF7B8FB0FAF97E80F00FFF761F9E7
:104AE000002759F82500E169884200D2E061216A77
:104AF000884200D920625AF825004CF25031884291
:104B000001D206B100256D1C6068854284DBA16A74
:104B100059F82100606225B000F006B8FFFF0300DD
:104B2000000000204C10002030BCBDE8C08FFBF717
:104B3000C0BB00000FB4054B10B503A9044A02988E
:104B400000F0A6F910BC5DF814FB0000C555000884
:104B500084000020004870478C0000200000000006
:104B600030B583B0044600F0ABF89FED090B054665
:104B70008DED000B002221466846FBF7C6FC284657
:104B800000F0B4F89DED000B03B030BD0000000054
:104B9000000000000000000010B52DED040B86B0F1
:104BA0009DED060B10EE100A10EE901A8DED000B25
:104BB000002818BF0120084320F00040C0F17F60AA
:104BC00000F1E040C00F21D19DED080B10EE101A4E
:104BD00010EE900A8DED000B002918BF012108434B
:104BE00020F00040C0F17F6000F1E040C00F0DD127
:104BF00029490798B1EB400F04BF0698002842D01E
:104C00000998400004BF089800283CD09DED080B8F
:104C100053EC102B9DED060B51EC100BFBF792FEA5
:104C2000CDE902019DED020B40F2FF7110EE900AFA
:104C30008DED000B31EA105021D00798039900F058
:104C4000004001F00041884219D09DED080B8DED28
:104C5000040B9DED020B8DED000B10EE900A0599F3
:104C600061F31E0005909DED041B9DED020B51ECC0
:104C7000110B53EC102BFBF7EBFDCDE902019DED81
:104C8000020B0AB010BD012000F030F80AB0BDE8F8
:104C9000104000F005B800000000E0FF0000000038
:104CA0009FED050B10B553EC102B51EC100BFBF7DF
:104CB000DAFD41EC100B10BD000000000000000008
:104CC00001480068704700008C00002002E008C81E
:104CD000121F08C1002AFAD170477047002001E076
:104CE00001C1121F002AFBD1704700000149086072
:104CF000704700008C0000202DE9FF5F82B000218A
:104D0000DDE90430020DDDF840B0034318D044F66D
:104D10001050A2F2FF3242431514119801281FD0FF
:104D2000A5EB0B00401C5FEA000A4FF000064E4F57
:104D3000DFF83891B046504615D5CAF1000413E0AB
:104D4000119801244AA3012801D16FEA0B010298AE
:104D5000119AC0E90031C0E9024206B000F08EB8F5
:104D6000CBF10000DFE704460021404A491842EB3E
:104D70000450CDE9001012E0E00707D032463B4670
:104D800040464946FBF7B3FA8046894632463B46E1
:104D900010461946FBF7ABFA06460F466410002C86
:104DA000EAD1DDE90401DDE90023BAF1000F06DAFA
:104DB000FBF79DFA42464B46FBF799FA05E0FBF7F5
:104DC00052FD42464B46FBF74EFD04460E4600227E
:104DD000284BFBF715FE03D84FF0FF30014607E0E4
:104DE0000022254B20463146FBF78EFCFBF7F0FDF9
:104DF000102409E0002C0ADB0A220023FBF7E2F969
:104E0000039B30321A55641E50EA0102F2D1641C31
:104E1000039AC4F111031444119A012A03D0012208
:104E200008430DD10AE0084304D000204FF0110BD5
:104E3000119072E7A3EB0B056D1E0DE05B4504DDE1
:104E40004FF0000205F1010504E003DA4FF0000223
:104E5000A5F10105002AECD002981199C0E90231B0
:104E6000C0E9004579E70000000014400000F03F71
:104E7000300000000000F0430000E03F30BCBDE81F
:104E8000C09F30380A2801D20120704700207047A7
:104E90002DE9FF4F95B09B468946064600250FE257
:104EA000252877D100242746F84A0121059400E0FF
:104EB000044316F8013F203B01FA03F01042F7D1FA
:104EC00030782A2811D06FF02F033078A0F130020B
:104ED000092A16D8059A44F0020402EB820203EB79
:104EE00042021044761C0590EFE759F8042B059216
:104EF000002A03DA504244F40054059044F00204BE
:104F0000761C30782E2816D116F8010F44F00404D0
:104F10002A280DD06FF02F023078A0F13003092B32
:104F200009D807EB870302EB4303C718761CF3E7A6
:104F300059F8047B761C30786C280FD006DC4C289E
:104F400017D068280DD06A2814D104E0742810D036
:104F50007A280FD10DE044F400140AE044F48014E0
:104F600001E044F440147278824202D104F58014C6
:104F7000761C761C307866280BD013DC582877D046
:104F800009DC002875D04528F6D04628F4D04728FB
:104F90001AD19DE118E0632835D0642879D06528BE
:104FA00012D195E1702873D008DC6728F1D0692808
:104FB0006FD06E280DD06F2806D1B5E073282CD0A5
:104FC000752875D0782874D05A46179990476D1C6B
:104FD00075E1C4F30250022809D003280DD0D9F896
:104FE000001004280DD00D6009F1040967E1D9F81B
:104FF0000010EA17C1E90052F6E7D9F800100D8059
:10500000F2E70D70F0E719F8041B8DF8001000208E
:105010008DF80100EA46012003E059F804AB4FF097
:10502000FF3061074FF0000102D40DE008F10101EB
:105030008846B9420FDA8045F8DB1AF808100029D3
:10504000F4D108E008F1010188468142FADB1AF840
:1050500008100029F6D105985B46A0EB0807214609
:105060003846179A00F097FA284400EB080507E045
:105070004DE029E10DE01AF8010B5A4617999047C7
:10508000B8F10108F7D25B4621463846179A13E17A
:1050900042E00A220092C4F302524FF0000A022AB0
:1050A00008D059F804CB032A4FEAEC710AD00DE07E
:1050B00029E02AE009F1070121F00702F2E802C124
:1050C000914609E00FFA8CFC4FEAEC71042A03D1F7
:1050D0004FFA8CFC4FEAEC71002907DA0A460021EE
:1050E000DCF1000C61EB02012D2202E0220504D567
:1050F0002B228DF80420012203E0E20701D02022B8
:10510000F7E7904659E00A2102E010220DE0102155
:105110004FF0000A00910BE010224FF0000A44F01B
:1051200004040827009203E008224FF0000A0092CE
:10513000C4F30252022A05D059F804CB0021032AF5
:1051400008D009E009F1070121F00702F2E802C1E5
:10515000914605E01FFA8CFC042A01D10CF0FF0CEB
:105160004FF00008220728D5702806D0009B83F056
:10517000100353EA0A0305D00EE040228DF8042004
:10518000012208E05CEA010206D030228DF80420FA
:105190008DF8050002229046009B83F0080353EA35
:1051A0000A030AD15CEA010201D1620705D5302267
:1051B0008DF804204FF001087F1E582804D034A039
:1051C00003900EA802900DE036A0F9E75346604622
:1051D000009AFAF7F7FF84460398825C0298401E13
:1051E000029002705CEA0100F0D1029806A9081A48
:1051F00000F1200A600702D524F4803400E0012782
:10520000574502DDA7EB0A0000E0002000EB0A0191
:10521000009005984144401A0590E00306D45B468F
:105220002146179A059800F0B6F90544002706E0D4
:1052300001A85A46C05D179990476D1C7F1C4745D1
:10524000F6DBE0030CD55B462146179A059800F083
:10525000A2F9054404E030205A46179990476D1C86
:105260000099481E00900029F5DC08E00298029998
:105270005A460078491C0291179990476D1CBAF163
:105280000001AAF1010AF1DC65E100000928010032
:1052900030313233343536373839616263646566AC
:1052A000000000003031323334353637383941426E
:1052B000434445460000000000F05BF90544761CBD
:1052C000307800287FF4ECAD19B0284600F04EB9D4
:1052D000620700D4062709F1070222F0070CFCE858
:1052E0000223E14603F000485FEA080C02D00FF207
:1052F000702C0DE05FEA045C02D50FF2682C07E029
:105300005FEAC47C02D00FF2602C01E0AFF2700CB7
:105310004FF0FF3823F00043CDF850C065280CD083
:1053200006DC452809D046281DD047283DD13DE060
:10533000662818D067287ED138E00021112F01DBC4
:10534000112000E0781CCDE9000106A90EA8FFF7A6
:10535000D3FCDDE90F010E9A03910021009207F1C1
:10536000010A04914DE04FF000400097CDE9011093
:1053700006A90EA8FFF7C0FCDDE90F0203920E9B01
:1053800011990022DDF80CA00093049211B9791C48
:1053900000EB010AB7EB0A0004D4C0F1FF3007F1BB
:1053A000010A0490AAEB0700019044E0012F00DA03
:1053B00001270021112F01DD112000E03846CDE941
:1053C000000106A90EA8FFF797FCDDE90F010E9A70
:1053D0000391002104910092BA4621070CD403994D
:1053E000514500DA8A46BAF1010F05DD009AAAF1AB
:1053F0000101515C302908D0B84202DA10F1040FE3
:1054000006DA0121CDE9011015E0AAF10101E9E771
:10541000002805DC049901440491AAEB000102E094
:10542000411C514500DD8A460499401A401C0190F8
:105430004FF000400290200704D40198504501DB52
:10544000CDF8048000208DF84F0002980DF14F0731
:10545000B0F1004F25D02B200E9002984FF002089B
:1054600000280CDA404202902D200E9007E00A211D
:105470000298FAF7F9FF3031029007F8011DB8F1F0
:105480000001A8F10108F2DC02980028EFD1791E92
:105490000E980870307800F0200040F0450007F8C2
:1054A000020D12A8C01B00F107081498007800B183
:1054B000012000EB0A01019801EBE07105984144DD
:1054C000401A401E0590E00306D45B462146179A19
:1054D000059800F060F805441498007818B15A4611
:1054E000179990476D1CE00324D55B462146179A17
:1054F000059800F050F805441CE00498002807DBEC
:10550000DDE90301884203DD0098405C179901E062
:10551000179930205A469047049805F10105401C20
:1055200004900198401E019004D12E205A461799EC
:1055300090476D1CBAF10001AAF1010ADDDC05E01B
:1055400017F8010B5A46179990476D1CB8F10001E6
:10555000A8F10108F4DC5B462146179A0598ABE6F2
:105560002D0000002B0000002000000030BCBDE832
:10557000C08F2DE9F041044600251E4617468804D9
:1055800004D405E039462020B0476D1C641EF9D5CF
:105590002846BDE8F0812DE9F041044600251E466D
:1055A0009046C80301D5302700E02027880404D5A1
:1055B00005E041463846B0476D1C641EF9D52846C3
:1055C000BDE8F081054A914202D0054A914201D1DD
:1055D000FDF7C8BC4FF0FF3070470000840000208A
:1055E000880000202DED028BC6B0FCF78DF8FE4838
:1055F000816D41F400318165816D01F400310091CC
:10560000016E41F480410166006E00F4804000901C
:10561000FEF74CF9FEF7B8F8FEF792F9FEF7A6F997
:10562000FEF7E8F80A20FBF78FFC0122EF49F0486B
:10563000FCF726FF0A20FBF787FCED491A22E03928
:1056400001F16800FCF71CFF5222E9491AA8FAF799
:10565000FAFDE74CB4F85200ADF8BA0054F8540F14
:105660002F90A088ADF8C000E088ADF8C200E049F6
:1056700015225C310D4631A8FAF7E5FD607F8DF803
:10568000D900A07F8DF8DA00206A379068221EA921
:105690006846FAF7D8FD0DF1680C9CE80F00FEF79C
:1056A00071F80A20FBF750FC5222D1491BA8FAF7E7
:1056B000CAFD34F8020CADF8BE0020683090A08816
:1056C000ADF8C400E088ADF8C6001522294632A81E
:1056D000FAF7B9FD607F8DF8DD00A07F8DF8DE0060
:1056E000206A3890C3A01A9068221FA96846FAF76A
:1056F000AAFD0DF16C0C9CE80F00FEF725F80A20BE
:10570000FBF722FC5222BA491BA8FAF79CFD34F899
:10571000020CADF8BE0020683090A088ADF8C4003F
:10572000E088ADF8C6001522294632A8FAF78BFDAD
:10573000607F8DF8DD00A07F8DF8DE00206A389054
:10574000B1A01A9068221FA96846FAF77CFD0DF1F6
:105750006C0C9CE80F00FDF7F7FF0A20FBF7F4FB49
:105760005222A3491BA8FAF76EFD34F8020CADF8DB
:10577000BE0020683090A088ADF8C400E088ADF885
:10578000C6001522294632A8FAF75DFD607F8DF824
:10579000DD00A07F8DF8DE00206A3890A7A01A9067
:1057A00068221FA96846FAF74EFD0DF16C0C9CE8C3
:1057B0000F00FDF7C9FF0A20FBF7C6FB52228C49F8
:1057C0001BA8FAF740FD34F8020CADF8BE002068C3
:1057D0003090A088ADF8C400E088ADF8C60015226E
:1057E000294632A8FAF72FFD607F8DF8DD00A07FF3
:1057F0008DF8DE00206A389096A01A9068221FA9C2
:105800006846FAF720FD0DF16C0C9CE80F00FDF7DF
:105810009BFF0A20FBF798FB92A0FFF78BF994A05F
:10582000FFF788F90120FBF78FFB002470480A235B
:1058300001222146C438FBF759FD18B1641CE4B2BB
:10584000FF2CF3D36A492A22C4390FA8FAF7FBFCCC
:10585000674CC43C608DADF8660054F82C0F1A906C
:1058600060681B9062490D2290391CA82491FAF7B8
:10587000EAFC607D8DF87D00A07D8DF87E00A0693A
:105880002090E06921903C2213A96846FAF7DBFCDE
:105890000DF13C0C9CE80F00FEF7B9FA54492A229E
:1058A000C4390FA8FAF7CFFC34F8020CADF8660043
:1058B00020681A9060681B900D221CA82499FAF7A2
:1058C000C2FC607D8DF87D00A07D8DF87E00A06912
:1058D0002090E06921903C2213A96846FAF7B3FCB6
:1058E0000DF13C0C9CE80F00FEF756F83F4C4FF0D2
:1058F000000BA41E4FF4FA70C4F82CB06060FFF7E0
:1059000079F8302264A139A8FAF79DFC6E4904F1B8
:1059100010006E4A6E4B80E80E00E6680A2096FB87
:10592000F0F500FB156530358DF8E75096FBF0F586
:1059300000FB1565751B95FBF0F595FBF0F600FB7C
:10594000165530358DF8E650A66896FBF0F500FB4D
:10595000156530358DF8ED5096FBF0F500FB1565BB
:10596000751B95FBF0F595FBF0F600FB16553035F1
:105970008DF8EC5091FBF0F500FB151530358DF8E6
:10598000F85091FBF0F500FB15154D1B95FBF0F55C
:1059900095FBF0F600FB165530358DF8F750642571
:1059A00091FBF5F605FB16168E1B96FBF5F696FB9E
:1059B000F0F700FB176630368DF8F6604FF47A7614
:1059C00091FBF6F706FB1717CF1B97FBF6F797FB34
:1059D000F0FC00FB1C7730378DF8F57042F2107741
:1059E00091FBF7FC76E0000000100240020000206E
:1059F0001011002024504D544B3235312C393630A3
:105A0000302A31370000000024504D544B333134DC
:105A10002C302C312C302C312C302C302C302C30A4
:105A20002C302C302C302C302C302C302C302C3096
:105A30002C302C302C302A323800000024504D54A9
:105A40004B3330302C3230302C302C302C302C304A
:105A50002A324600245047434D442C33332C312AFC
:105A60003643000024504D544B3630352A33310034
:105A7000436F6E6E656374696F6E206573746162E7
:105A80006C69736865642061742039363030206237
:105A90006175642E2E2E0A00483D31302C20533D76
:105AA00032302C2030302E3030303030304E2C2000
:105AB00030302E303030303030452C2030303030E7
:105AC0002E30304D00000000BD294F027F5D1D02C9
:105AD000C49B010007FB1C1CA1EB0C0C9CFBF7FCFE
